{
    "abi": [
        {
            "type": "function",
            "name": "contracts",
            "inputs": [
                {
                    "name": "",
                    "type": "uint256",
                    "internalType": "uint256"
                }
            ],
            "outputs": [
                {
                    "name": "",
                    "type": "address",
                    "internalType": "contract ProcurementContract"
                }
            ],
            "stateMutability": "view"
        },
        {
            "type": "function",
            "name": "createProcurementContract",
            "inputs": [],
            "outputs": [],
            "stateMutability": "nonpayable"
        },
        {
            "type": "function",
            "name": "getAllContracts",
            "inputs": [],
            "outputs": [
                {
                    "name": "",
                    "type": "address[]",
                    "internalType": "contract ProcurementContract[]"
                }
            ],
            "stateMutability": "view"
        },
        {
            "type": "function",
            "name": "getContracts",
            "inputs": [],
            "outputs": [
                {
                    "name": "",
                    "type": "address[]",
                    "internalType": "contract ProcurementContract[]"
                }
            ],
            "stateMutability": "view"
        },
        {
            "type": "function",
            "name": "getContractsByOwner",
            "inputs": [
                {
                    "name": "owner",
                    "type": "address",
                    "internalType": "address"
                }
            ],
            "outputs": [
                {
                    "name": "",
                    "type": "address[]",
                    "internalType": "contract ProcurementContract[]"
                }
            ],
            "stateMutability": "view"
        },
        {
            "type": "function",
            "name": "ownerContracts",
            "inputs": [
                {
                    "name": "",
                    "type": "address",
                    "internalType": "address"
                },
                {
                    "name": "",
                    "type": "uint256",
                    "internalType": "uint256"
                }
            ],
            "outputs": [
                {
                    "name": "",
                    "type": "address",
                    "internalType": "contract ProcurementContract"
                }
            ],
            "stateMutability": "view"
        }
    ],
    "bytecode": {
        "object": "0x6080604052348015600f57600080fd5b506116988061001f6000396000f3fe608060405234801561001057600080fd5b50600436106100625760003560e01c806318d3ce96146100675780631cea013a14610085578063474da79a14610098578063ba528b71146100c3578063c3a2a93a14610067578063dc18e347146100d6575b600080fd5b61006f6100e0565b60405161007c91906102d4565b60405180910390f35b61006f61009336600461033c565b610142565b6100ab6100a636600461035e565b6101b8565b6040516001600160a01b03909116815260200161007c565b6100ab6100d1366004610377565b6101e2565b6100de61021a565b005b6060600080548060200260200160405190810160405280929190818152602001828054801561013857602002820191906000526020600020905b81546001600160a01b0316815260019091019060200180831161011a575b5050505050905090565b6001600160a01b0381166000908152600160209081526040918290208054835181840281018401909452808452606093928301828280156101ac57602002820191906000526020600020905b81546001600160a01b0316815260019091019060200180831161018e575b50505050509050919050565b600081815481106101c857600080fd5b6000918252602090912001546001600160a01b0316905081565b600160205281600052604060002081815481106101fe57600080fd5b6000918252602090912001546001600160a01b03169150829050565b600033604051610229906102c7565b6001600160a01b039091168152602001604051809103906000f080158015610255573d6000803e3d6000fd5b5060008054600181810183557f290decd9548b62a8d60345a988386fc84ba6bc95484008f6362f93160ef3e56390910180546001600160a01b039094166001600160a01b0319948516811790915533835260208281526040842080549384018155845290922001805490921617905550565b6112c1806103a283390190565b602080825282518282018190526000918401906040840190835b818110156103155783516001600160a01b03168352602093840193909201916001016102ee565b509095945050505050565b80356001600160a01b038116811461033757600080fd5b919050565b60006020828403121561034e57600080fd5b61035782610320565b9392505050565b60006020828403121561037057600080fd5b5035919050565b6000806040838503121561038a57600080fd5b61039383610320565b94602093909301359350505056fe6080604052348015600f57600080fd5b506040516112c13803806112c1833981016040819052602c91605a565b600080546001600160a01b0319166001600160a01b03929092169190911790556002805460ff191690556088565b600060208284031215606b57600080fd5b81516001600160a01b0381168114608157600080fd5b9392505050565b61122a806100976000396000f3fe608060405234801561001057600080fd5b50600436106101005760003560e01c80637ebd1b3011610097578063bd24616611610066578063bd2461661461023a578063cff29dfd1461024d578063d01f63f514610260578063fe973bd01461027557600080fd5b80637ebd1b30146101d35780638da5cb5b146101fe578063ac58a69014610211578063b81c78ec1461022457600080fd5b80632660a92e116100d35780632660a92e1461015b5780633af32abf1461018757806362ea82db146101aa5780637087c1fb146101cb57600080fd5b80631022eccb1461010557806312fa6feb146101215780631a81d59c1461013e5780631efec4c214610148575b600080fd5b61010e60015481565b6040519081526020015b60405180910390f35b60025461012e9060ff1681565b6040519015158152602001610118565b610146610288565b005b610146610156366004610dae565b610390565b61012e610169366004610dae565b6001600160a01b031660009081526004602052604090205460ff1690565b61012e610195366004610dae565b60046020526000908152604090205460ff1681565b6101bd6101b8366004610dae565b610568565b604051610118929190610e24565b61010e610694565b6101e66101e1366004610e52565b6106d7565b6040516001600160a01b039091168152602001610118565b6000546101e6906001600160a01b031681565b61014661021f366004610e81565b610701565b61022c6108dc565b604051610118929190610f96565b610146610248366004610dae565b610bea565b6101e661025b366004610e52565b610d02565b610268610d12565b6040516101189190610fbb565b610146610283366004610e52565b610d74565b6000546001600160a01b031633146102bb5760405162461bcd60e51b81526004016102b290611007565b60405180910390fd5b60015442101561030d5760405162461bcd60e51b815260206004820152601760248201527f42696464696e67206973207374696c6c2061637469766500000000000000000060448201526064016102b2565b60025460ff16156103585760405162461bcd60e51b8152602060048201526015602482015274109a59191a5b99c8185b1c9958591e48195b991959605a1b60448201526064016102b2565b6002805460ff191660011790556040517f7dc0cb3c887ebbbf64cfffa83490672b1c1d1759f070c97a27022892df1a04f390600090a1565b6000546001600160a01b031633146103ba5760405162461bcd60e51b81526004016102b290611007565b6001600160a01b03811660009081526004602052604090205460ff166104145760405162461bcd60e51b815260206004820152600f60248201526e139bdd081dda1a5d195b1a5cdd1959608a1b60448201526064016102b2565b6001600160a01b0381166000908152600460205260408120805460ff191690555b60035481101561053057816001600160a01b03166003828154811061045c5761045c61103e565b6000918252602090912001546001600160a01b03160361052857600380546104869060019061106a565b815481106104965761049661103e565b600091825260209091200154600380546001600160a01b0390921691839081106104c2576104c261103e565b9060005260206000200160006101000a8154816001600160a01b0302191690836001600160a01b03160217905550600380548061050157610501611083565b600082815260209020810160001990810180546001600160a01b0319169055019055610530565b600101610435565b506040516001600160a01b038216907fda272a3c10ef10f3cd2183ac7427914cd2187ebdf7fb83fd3d623fa552a9b98e90600090a250565b60056020526000908152604090208054819061058390611099565b80601f01602080910402602001604051908101604052809291908181526020018280546105af90611099565b80156105fc5780601f106105d1576101008083540402835291602001916105fc565b820191906000526020600020905b8154815290600101906020018083116105df57829003601f168201915b50505050509080600101805461061190611099565b80601f016020809104026020016040519081016040528092919081815260200182805461063d90611099565b801561068a5780601f1061065f5761010080835404028352916020019161068a565b820191906000526020600020905b81548152906001019060200180831161066d57829003601f168201915b5050505050905082565b60025460009060ff16806106aa57506001544210155b156106b55750600090565b42600154116106c45750600090565b426001546106d2919061106a565b905090565b600381815481106106e757600080fd5b6000918252602090912001546001600160a01b0316905081565b3360009081526004602052604090205460ff166107525760405162461bcd60e51b815260206004820152600f60248201526e139bdd081dda1a5d195b1a5cdd1959608a1b60448201526064016102b2565b60015442106107975760405162461bcd60e51b8152602060048201526011602482015270109a59191a5b99c81a185cc8195b991959607a1b60448201526064016102b2565b33600090815260056020526040902080546107b190611099565b1590506107f85760405162461bcd60e51b8152602060048201526015602482015274109a5908185b1c9958591e481cdd589b5a5d1d1959605a1b60448201526064016102b2565b60408051808201825282815290516bffffffffffffffffffffffff193360601b1660208281019190915282019060340160408051601f198184030181529181529152336000908152600560205220815181906108549082611122565b50602082015160018201906108699082611122565b50506006805460018101825560009182527ff652222313e28459528d920b65115c16c04f3efc82aaedc97be59f3f377c0d3f0180546001600160a01b031916339081179091556040519092507f88c5a0d081e0c7a69b5817581ffa85b19d71703bc581bb5c09fa253c527a055e9190a250565b60005460609081906001600160a01b0316331461090b5760405162461bcd60e51b81526004016102b290611007565b60025460ff1661095d5760405162461bcd60e51b815260206004820152601960248201527f42696464696e6720686173206e6f7420656e646564207965740000000000000060448201526064016102b2565b60065460009067ffffffffffffffff81111561097b5761097b610e6b565b6040519080825280602002602001820160405280156109ae57816020015b60608152602001906001900390816109995790505b5060065490915060009067ffffffffffffffff8111156109d0576109d0610e6b565b604051908082528060200260200182016040528015610a0357816020015b60608152602001906001900390816109ee5790505b50905060005b600654811015610be0576005600060068381548110610a2a57610a2a61103e565b60009182526020808320909101546001600160a01b0316835282019290925260400190208054610a5990611099565b80601f0160208091040260200160405190810160405280929190818152602001828054610a8590611099565b8015610ad25780601f10610aa757610100808354040283529160200191610ad2565b820191906000526020600020905b815481529060010190602001808311610ab557829003601f168201915b5050505050838281518110610ae957610ae961103e565b60200260200101819052506005600060068381548110610b0b57610b0b61103e565b60009182526020808320909101546001600160a01b0316835282019290925260400190206001018054610b3d90611099565b80601f0160208091040260200160405190810160405280929190818152602001828054610b6990611099565b8015610bb65780601f10610b8b57610100808354040283529160200191610bb6565b820191906000526020600020905b815481529060010190602001808311610b9957829003601f168201915b5050505050828281518110610bcd57610bcd61103e565b6020908102919091010152600101610a09565b5090925090509091565b6000546001600160a01b03163314610c145760405162461bcd60e51b81526004016102b290611007565b6001600160a01b03811660009081526004602052604090205460ff1615610c735760405162461bcd60e51b8152602060048201526013602482015272105b1c9958591e481dda1a5d195b1a5cdd1959606a1b60448201526064016102b2565b6003805460018082019092557fc2575a0e9e593c00f959f8c92f12db2869c3395a3b0502d05e2516446f71f85b0180546001600160a01b0319166001600160a01b038416908117909155600081815260046020526040808220805460ff1916909417909355915190917ff320c5dfe550406b68a99c4c64bd3e50fd0b1b70a4d4d9ddd88bbdd434f3030a91a250565b600681815481106106e757600080fd5b60606003805480602002602001604051908101604052809291908181526020018280548015610d6a57602002820191906000526020600020905b81546001600160a01b03168152600190910190602001808311610d4c575b5050505050905090565b6000546001600160a01b03163314610d9e5760405162461bcd60e51b81526004016102b290611007565b610da881426111e1565b60015550565b600060208284031215610dc057600080fd5b81356001600160a01b0381168114610dd757600080fd5b9392505050565b6000815180845260005b81811015610e0457602081850181015186830182015201610de8565b506000602082860101526020601f19601f83011685010191505092915050565b604081526000610e376040830185610dde565b8281036020840152610e498185610dde565b95945050505050565b600060208284031215610e6457600080fd5b5035919050565b634e487b7160e01b600052604160045260246000fd5b600060208284031215610e9357600080fd5b813567ffffffffffffffff811115610eaa57600080fd5b8201601f81018413610ebb57600080fd5b803567ffffffffffffffff811115610ed557610ed5610e6b565b604051601f8201601f19908116603f0116810167ffffffffffffffff81118282101715610f0457610f04610e6b565b604052818152828201602001861015610f1c57600080fd5b81602084016020830137600091810160200191909152949350505050565b600082825180855260208501945060208160051b8301016020850160005b83811015610f8a57601f19858403018852610f74838351610dde565b6020988901989093509190910190600101610f58565b50909695505050505050565b604081526000610fa96040830185610f3a565b8281036020840152610e498185610f3a565b602080825282518282018190526000918401906040840190835b81811015610ffc5783516001600160a01b0316835260209384019390920191600101610fd5565b509095945050505050565b60208082526018908201527f4f6e6c79206f776e65722063616e2063616c6c20746869730000000000000000604082015260600190565b634e487b7160e01b600052603260045260246000fd5b634e487b7160e01b600052601160045260246000fd5b8181038181111561107d5761107d611054565b92915050565b634e487b7160e01b600052603160045260246000fd5b600181811c908216806110ad57607f821691505b6020821081036110cd57634e487b7160e01b600052602260045260246000fd5b50919050565b601f82111561111d57806000526020600020601f840160051c810160208510156110fa5750805b601f840160051c820191505b8181101561111a5760008155600101611106565b50505b505050565b815167ffffffffffffffff81111561113c5761113c610e6b565b6111508161114a8454611099565b846110d3565b6020601f821160018114611184576000831561116c5750848201515b600019600385901b1c1916600184901b17845561111a565b600084815260208120601f198516915b828110156111b45787850151825560209485019460019092019101611194565b50848210156111d25786840151600019600387901b60f8161c191681555b50505050600190811b01905550565b8082018082111561107d5761107d61105456fea2646970667358221220197447bad92d9ad30c6dc622c42e774749051119e3880833f49da93aec7e6ff564736f6c634300081b0033a2646970667358221220716f352abcebde0fda6f8c72386cb73a752e105363ed31a0cac4160dd921282064736f6c634300081b0033",
        "linkReferences": {}
    },
    "methodIdentifiers": {
        "contracts(uint256)": "474da79a",
        "createProcurementContract()": "dc18e347",
        "getAllContracts()": "18d3ce96",
        "getContracts()": "c3a2a93a",
        "getContractsByOwner(address)": "1cea013a",
        "ownerContracts(address,uint256)": "ba528b71"
    },
    "id": 21
}